:03000300D2B02256
:10017800C2AFC2B07FDE1203D8D2B07F501FEF608B
:010188001A5C
:0301890020B0F9AA
:08018C00D2AF7F781FEF600D78
:05019400D2B030B00202
:02019900D3226F
:08019B000000000080EFC32208
:0401A300D2AFC322F2
:1001A700E55B5401FBE4A20433FDEB6D6009E55BFD
:1001B700C313648CFA8005E55BC313FA8A5BA20458
:0101C7002215
:0501C800756714D2046C
:0401CD00C2AFC2B04B
:0601D10000000000D2B0A6
:1001D7000000000000000000000000000000000018
:0401E700E56760095F
:0901EB0020B002C204156780F384
:0A01F400D2AF7F141203D8A2042238
:0A01FE00751C01751D00E51C60165C
:0A0208001201C892041201A750046D
:0F021200E51C421DE51CC333F51C80E6AF1D2221
:0F0221008B188A19891A8D1BE4F55BE51B601990
:100230001201FEEFAB18AA19A91A1200CB151B0563
:0F0240001AE51A70E7051980E3E55B24FFB32286
:04024F00C2AFC2B0C8
:1002530000000000300402D2B07F141203D8D2B0E1
:03026300D2AF22F5
:090266008F67756808E5686019EE
:10026F00E567540124FF920412024F1568AD67E44D
:0A027F00C313CD13CD8D6780E32279
:0C0289008B1C8A1D891E8D1FE51F60194B
:10029500AB1CAA1DA91E1200E7FF120266151F0559
:0A02A5001EE51E70E7051D80E32230
:0702AF00750908E509600B69
:0F02B6001509E5092453F8760080F1755CFF22E5
:1002C500750901750A00750B53750C40E55CB44062
:1002D50002C322E4F55B1201784002C3227FF012CB
:0F02E5000266750D00750E01E50E700302039F92
:1002F4001201C850047A028002E4FA8A0F1201C87B
:1003040050047A018002E4FAEA420FE50F600B140C
:0A031400603B146034146039803C33
:10031E00E50D655C601B855CF0B2F7E50D6480B59C
:10032E00F0005011AB09AA0AA90B1200E7550E7086
:10033E0004C2038017850D0CE50C33D203800DD259
:10034E00038009C2038005755C40C322A203920498
:10035E001201A7A204920412024F300310AB09AA95
:10036E000AA90B1200E7450E1200CB8011AB09AAA9
:0E037E000AA90BE50EF4FC1200E75C1200CB9E
:10038C00E50D050D33E50E7A00C333CA33CAF50EFD
:10039C000202EDE50D050D3395E0050BE50B700440
:1003AC00050AE50AE50D6480B4C00050030202EAB8
:0503BC00850C5CD3225A
:1003C1008B188A19891A7F55120266AB18AA19A9C6
:0703D1001A7D0812028922C7
:0803D8001FEF60030080F92211
:1003F200C0E0C0D075D0100527E527700205263071
:020402000118DF
:10040400AA24AB25E525152570021524EA4B7008AE
:0E0414007524027525E1B200E5291529600561
:0B042200D0D0D0E03275290F3000313F
:10042D00E5282421F88608C2B2C2B3C2B48508906B
:0C043D00E528600814600914600A800AB9
:10044900D2B28006D2B38002D2B4E5281528700B47
:0304590075280201
:02045C0080C45A
:08045E00C2B2C2B3C2B480BCFB
:04046600EF1F601311
:10046A00E4F526F527E526B40205E527B4E10050B0
:04047A00EB80F222FF
:09047E008B098A0A890B750C0335
:050487001201784002A3
:10048C008023AB09AA0AA90B1203C17FBE12026614
:10049C00794AE4FA7B017D091202215002D322E54C
:0704AC000C150C70D6C322F1
:1004B300756000D20275B000759000758A06758C60
:1004C300065389F0858989438902858989D2A9D20E
:0904D3008CD2AF120003755F002A
:1004DC00852221852322E55F9003EA93F5237F0390
:0A04EC00120466055FE55FB408E640
:0604F6002002030205AB29
:0604FC00E4F55F1202AFFF
:0B0502001202C540028063E55B60054B
:10050D00E4F55F805AE5536410600EE5536428608E
:10051D0008E55364226002803F1201787953E4FAB2
:10052D007B011203C17F4E1202667F7F1202667F2E
:0A053D0080120266E55364106005A9
:050547007F1F12026697
:10054C007F08EF1F6011EF2453F8E55F232323246A
:07055C002A2FF9E6F780EBFE
:0C056300055FE55FB404004096855F6012
:0E056F00752104E5609003E093F522752304E6
:10057D00E4F524F525D201D2007F0A120466E56068
:09058D00B40001D3500302071A67
:02059600C2029F
:0905980075211075221075231065
:0A05A100C201D200E4F55F0204F687
:0805AB00E560B40101D3401A20
:1005B300752104E55F24E1F582E43403F583E493D4
:1005C300F5227523047F0A12046675610A1561E535
:0605D30061700302070B3A
:0505D90012017840133F
:1005DE0075217C7522187523187F14120466D202B9
:1005EE0002070BE55F232323242AF97B01E4FA1289
:1005FE0003C17F441202667F01120466E55F232366
:10060E0023242AF97B01E4FA12047E40030206FA3F
:10061E00756200854B65854A66E55F232323792A3B
:10062E00242AF8E6FB7A00641070047801800278C0
:10063E0004AD66AC65E565088006A2E713CD13CD63
:0B064E00D8F8F5658D66E56530E7140F
:10065900E566F4FBE565F4FA0BEB70010A8A658B34
:1006690066756201AE65AF66E4FC7D0A12000EEDA7
:100679009003E093FAE5656480B48005E566B40A01
:0306890000401915
:10068C00AE65AF66E4FC7D0A12000EE4FC7D0A1236
:10069C00000EED93F564436202E5656480B4800559
:0706AC00E566B464004003A1
:1006B300756204E562600E14601514601C146023F7
:0506C30014602A803BD9
:0A06C8007521008A227523F08031AD
:0A06D2007521108A227523F080279D
:0A06DC008564218A227523F0801D39
:0A06E6007521108564228A23801319
:0806F0007521828564228A2332
:0206F800800977
:1006FA0075211A75221E75231A7F041204660205D3
:10070A00D0055FE55FB5600280030204F6E4F55F99
:03071A000204F6E0
:07071D000C2104000006009E
:1003E000EE82DCD6B2767EC2FEF6BA7C2C2CEE0013
:0203F00000000B
:03000B000203F2FB
:03000000020112E8
:10011200758169E4787FF6D8FD90071DE49370023B
:10012200804EC31392D5C31392D1FFA3E493F8B0C8
:10013200D5402130D505E4A393F5A0E420D102A354
:100142009320D507F608DFF3A380D1F208B800F6B2
:1001520005A080F2E8030303541F2420F9E85407A2
:10016200F8E4D333B80002800333D8FD47F780D8D0
:0601720075A0FF0204B3BA
:1000CB00CB30E11520E00FC083C08289828A83CBBD
:0C00DB00F0D082D08322CBF322CBF7229E
:1000E700EB30E11320E00EC083C08289828A83E06F
:1000F700D082D08322E3226405700EC083C0828938
:0B010700828A8393D082D08322E722FB
:10000E00C2D1C2D5EE30E707D2D1D2D51200BBECA9
:10001E0030E705B2D11200C312003630D103120000
:10002E00BB30D5031200C322BC000EBE0032EF8DD2
:10003E00F08420D226FFADF0227B0075F008EF2F62
:10004E00FFEE33FEEB33FBEE9DEB9C4005FBEE9D8E
:10005E00FE0FD5F0E9E4CECDCBCC227EFF7FFF2282
:10006E00EDB410005022EE8DF084FEEF54F045F00A
:10007E00C48DF084C4FCEF540FC445F0C48DF084DD
:10008E00FFADF0E4CC4FFF22EE8DF08420D2CC7E7B
:10009E0008CEC5F0CDCBEF2FFFED33FD10D7079B6C
:1000AE005005D5F0F1229BFD0FD5F0EA22C3E49F57
:0D00BE00FFE49EFE22C3E49DFDE49CFC22B5
:0107240000D4
:00000001FF
