:03000300D2B02256
:10017800C2AFC2B07FDE1203DED2B07F501FEF6085
:010188001C5A
:05018900D2B020B0F728
:08018E00D2AF7F781FEF600D76
:05019600D2B030B00200
:02019B00D3226D
:08019D000000000080EFC32206
:0401A500D2AFC322F0
:1001A900E5595401FBE4A20333FDEB6D6009E55900
:1001B900C313648CFA8005E559C313FA8A59A2035B
:0101C9002213
:0501CA00756414D2036E
:0401CF00C2AFC2B049
:0601D30000000000D2B0A4
:1001D9000000000000000000000000000000000016
:0401E900E564600960
:0901ED0020B002C203156480F386
:0E01F600D2AFD2B07F141203DED2B0A2032229
:0A020400751C01751D00E51C601655
:0A020E001201CA92031201A9500464
:0F021800E51C421DE51CC333F51C80E6AF1D221B
:0F0227008B188A19891A8D1BE4F559E51B60198C
:10023600120204EFAB18AA19A91A1200CB151B0556
:0F0246001AE51A70E7051980E3E55924FFB32282
:04025500C2AFC2B0C2
:1002590000000000300302D2B07F141203DED2B0D6
:03026900D2AF22EF
:10026C008F64756508E5656019E564540124FF9297
:10027C00031202551565AD64E4C313CD13CD8D6423
:03028C0080E322EA
:10028F008B1C8A1D891E8D1FE51F6019AB1CAA1DB3
:10029F00A91E1200E7FF12026C151F051EE51E7046
:0602AF00E7051D80E322BB
:0702B500750908E509600B63
:0F02BC001509E5092451F8760080F1755AFF22E3
:1002CB00750901750A00750B51750C40E55AB44060
:1002DB0002C322E4F5591201784002C3227FF012C7
:0F02EB00026C750D00750E01E50E70030203A580
:1002FA001201CA50047A028002E4FA8A0F1201CA71
:10030A0050047A018002E4FAEA420FE50F600B1406
:0A031A00603B146034146039803C2D
:10032400E50D655A601B855AF0B2F7E50D6480B59A
:10033400F0005011AB09AA0AA90B1200E7550E7080
:1003440004C2028017850D0CE50C33D202800DD255
:10035400028009C2028005755A40C322A202920398
:100364001201A9A2039203120255300210AB09AA8A
:100374000AA90B1200E7450E1200CB8011AB09AAA3
:0E0384000AA90BE50EF4FC1200E75C1200CB98
:10039200E50D050D33E50E7A00C333CA33CAF50EF7
:1003A2000202F3E50D050D3395E0050BE50B700434
:1003B200050AE50AE50D6480B4C00050030202F0AC
:0503C200850C5AD32256
:1003C7008B188A19891A7F5512026CAB18AA19A9BA
:0703D7001A7D0812028F22BB
:0803DE001FEF60030080F9220B
:1003F800C0E0C0D075D0100525E52570020524E5BC
:05040800271527600527
:0B040D00D0D0D0E03275270F30003156
:10041800E5262421F88608C2B2C2B3C2B485089082
:0C042800E526600814600914600A800AD0
:10043400D2B28006D2B38002D2B4E5261526700B60
:0304440075260218
:0204470080C46F
:08044900C2B2C2B3C2B480BC10
:04045100EF1F601326
:10045500E4F524F525E524B40205E525B4E10050CD
:04046500EB80F22214
:090469008B098A0A890B750C034A
:050472001201784002B8
:100477008023AB09AA0AA90B1203C77FBE12026C1D
:100487007948E4FA7B017D091202275002D322E55D
:070497000C150C70D6C32206
:10049E00755E00D20175B000759000758A06758C78
:1004AE00065389F0858989438902858989D2A9D223
:0904BE008CD2AF120003755D0041
:1004C700852221852322E55D9003F093F5237F03A1
:0A04D700120451055DE55DB408E66E
:0604E10020010302058466
:0604E700E4F55D1202B510
:0B04ED001202CB40028063E55960055D
:1004F800E4F55D805AE5516410600EE551642260B0
:1005080008E55164286002803F1201787951E4FAC5
:100518007B011203C77F4E12026C7F7F12026C7F31
:0A0528008012026CE55164106005BA
:050532007F1F12026CA6
:100537007F08EF1F6011EF2451F8E55D2323232483
:07054700282FF9E6F780EB15
:0F054E00055DE55DB404004096855D5EE4F55DF6
:0E055D00752304852321E55E9003E693F522C5
:10056B00D2007F0A120451E55EB40001D35003029E
:02057B0006DC9C
:02057D00C201B9
:05057F00C2000204E1CE
:05058400120178401394
:1005890075217C7523188523227F14120451D20109
:100599000204E1E55D2323232428F97B01E4FA120F
:1005A90003C77F4412026C7F14120451E55EB40143
:0405B90001D3401515
:0205BD00D2006A
:1005BF00752304852321E55D9003E693F5227F0AD9
:1005CF00120451E55D2323232428F97B01E4FA1259
:0705DF00046940030206C29B
:1005E600755F00854962854863E55D232323792885
:1005F6002428F8E6FB7A00641070047B0180027BF5
:1006060004AD63AC62E5620B8006A2E713CD13CDA1
:0B061600DBF8F5628D63E56230E7144D
:10062100E563F4FBE562F4FA0BEB70010A8A628B75
:1006310063755F01AE62AF63E4FC7D0A12000EEDEB
:100641009003E693FAE5626480B48005E563B40A39
:030651000040194D
:10065400AE62AF63E4FC7D0A12000EE4FC7D0A1274
:10066400000EED93F561435F02E5626480B480059A
:07067400E563B464004003DC
:10067B00755F04E55F600E14601514601C14602335
:05068B0014602A803B11
:0A0690007521008A227523F08031E5
:0A069A007521108A227523F08027D5
:0A06A4008561218A227523F0801D74
:0A06AE007521108561228A23801354
:0806B8007521828561228A236D
:0206C0008009AF
:0906C20075231A85232175221EFF
:1006CB00D200055DE55DB55E0280030204E1E4F551
:0406DB005D0204E1D7
:0706DF000C210400000600DD
:1003E600EE82DCD6B2767EC2FEF6BA7C2C2CEE000D
:0203F600000005
:03000B000203F8F5
:03000000020112E8
:10011200758166E4787FF6D8FD9006DFE49370027D
:10012200804EC31392D5C31392D1FFA3E493F8B0C8
:10013200D5402130D505E4A393F5A0E420D102A354
:100142009320D507F608DFF3A380D1F208B800F6B2
:1001520005A080F2E8030303541F2420F9E85407A2
:10016200F8E4D333B80002800333D8FD47F780D8D0
:0601720075A0FF02049ECF
:1000CB00CB30E11520E00FC083C08289828A83CBBD
:0C00DB00F0D082D08322CBF322CBF7229E
:1000E700EB30E11320E00EC083C08289828A83E06F
:1000F700D082D08322E3226405700EC083C0828938
:0B010700828A8393D082D08322E722FB
:10000E00C2D1C2D5EE30E707D2D1D2D51200BBECA9
:10001E0030E705B2D11200C312003630D103120000
:10002E00BB30D5031200C322BC000EBE0032EF8DD2
:10003E00F08420D226FFADF0227B0075F008EF2F62
:10004E00FFEE33FEEB33FBEE9DEB9C4005FBEE9D8E
:10005E00FE0FD5F0E9E4CECDCBCC227EFF7FFF2282
:10006E00EDB410005022EE8DF084FEEF54F045F00A
:10007E00C48DF084C4FCEF540FC445F0C48DF084DD
:10008E00FFADF0E4CC4FFF22EE8DF08420D2CC7E7B
:10009E0008CEC5F0CDCBEF2FFFED33FD10D7079B6C
:1000AE005005D5F0F1229BFD0FD5F0EA22C3E49F57
:0D00BE00FFE49EFE22C3E49DFDE49CFC22B5
:0106E6000013
:00000001FF
